:03000000021A29B8
:0C1A2900787FE4F6D8FD758123021A7066
:0C000300000000000000000000000000F1
:0B1F0300EF1FAC0670011E4C70F622B0
:101E2B00AB07AA06EB1BAE0270011A4E60097FAA24
:081E3B007E05121F0380ED2259
:10195A00907120E04480F07F057E00121F03E4FFAF
:10196A00FE121E2B75A75575AC589071327450F043
:10197A009071307403F0907136742FF07F18EF2451
:10198A0066FDE434718D82F583E4F00FEFB433EE33
:10199A00904011E4935407FF90711CE054F84FF003
:1019AA00904017E493547FFF90711DE054804FF0EC
:1019BA00904010E493FF5401C43333335480FE90B3
:1019CA007123E0547F4EF0EFC313543F4440FFA30A
:1019DA00E054804FF0904012E493FF540FFE907150
:1019EA0046E054F04EF0EFC4540FFF90714FE054AC
:1019FA00F04FF0904013E493543FFF907140E0544D
:101A0A00C04FF0904014E493907126F0904015E492
:0E1A1A0093907128F0904016E49390712AF09A
:011A2800229B
:081F22008FD7E5D430E4FB2267
:101DF70078E3E2543FF2E24440F29071957404F0C4
:0A1E070075D60175D59F75D2102223
:05187E004260AC000017
:101C9E0078E3E2440CF2E24403F218E2440CF278E8
:101CAE006AE24478F27591FF907123E054D8F0E027
:101CBE004459F09071227407F0439E70439940226C
:101D5200907123E054D8F0EF7006E04459F0800B04
:101D6200EFB40107907123E0445BF07869E24448E4
:081D7200F27F017E00021E2B2E
:101D2900539940EFB401054399158010EFB40205AA
:101D39004399148007EFB403034399117869E24486
:091D490048F27F017E00021E2B0E
:10171E00E49060A2F0A3F09060A4121257000000B3
:10172E0000E49060A8F0A3F074FF9060AAF0A3F01C
:10173E00E49060A1F07869E24401F2786BE230E166
:10174E00FAAF93EF75F010A4FFE594C4540FFDEFBC
:10175E004DFF9060A2E5F0F0A3EFF07402F29060FE
:10176E00A1E0C39402406D9060A8E0FEA3E0FFD319
:10177E009060A3E09F9060A2E09E400CE0FFA3E08B
:10178E009060A8CFF0A3EFF09060AAE0FEA3E0FF78
:10179E00C39060A3E09F9060A2E09E500CE0FFA378
:1017AE00E09060AACFF0A3EFF09060A4E0F8A3E081
:1017BE00F9A3E0FAA3E0FB9060A2E0FEA3E0FFE451
:1017CE00FCFDEB2FFFEA3EFEED39FDEC38FC9060A0
:1017DE00A412124B9060A1E004F0E06414600302C6
:1017EE0017439060A4E0FCA3E0FDA3E0FEA3E0FF9E
:1017FE00C006C0079060A8E0FEA3E0FBAA06D007D3
:10180E00D006C3EF9BFFEE9AFEED9400FDEC940024
:10181E00FC9060A412124B9060A4E0FCA3E0FDA328
:10182E00E0FEA3E0FFC006C0079060AAE0FEA3E0C2
:10183E00FBAA06D007D006C3EF9BFFEE9AFEED94EF
:10184E0000FDEC9400FC9060A412124B9060A4E09A
:10185E00FCA3E0FDA3E0FEA3E0FF780412122590A6
:0F186E0060A2EEF0A3EFF09060A2E0FEA3E0FF17
:01187D002248
:101E5A00E4FF121D527F02121D2912171E906039CB
:061E6A00EEF0A3EFF022F0
:101E9B00121D527F01121D2912171E906052EEF077
:041EAB00A3EFF0228F
:101E70007F01121D527F03121D2912171E9060113F
:061E8000EEF0A3EFF022DA
:10188300C1194160910041608400C11A4160850023
:101893004260860000416088004260890000446025
:1018A3008B0000000042608F000042609200004104
:0318B3006094003E
:101E110043A820D2AF75D1017895E4F2187424F269
:0A1E2100789174A0F21874FDF2220B
:03001E00020021BC
:10002100C0E0C0F0C083C082C0D075D000C000C0A5
:1000310001C002C003C004C005C006C0077891E238
:0A00410020E703020587E24480F285
:10004B00D390607DE0941490607CE09405500CA3F9
:10005B00E004F0700690607CE004F030A356D219F7
:10006B00D390607DE094B090607CE09404500302E8
:10007B00019BE4FFFEFDFC90607EE0F8A3E0F9A39A
:10008B00E0FAA3E0FB121214602520032290607E9D
:10009B00E0FCA3E0FDA3E0FEA3E0FF1211F19060F2
:1000AB0033EFF090607E12125700000000D203C2B3
:1000BB000002019B201903020199D390607DE0940B
:1000CB000890607CE094005005C200020192D3902E
:1000DB00607DE0941290607CE09400501590607EFF
:1000EB00E0FCA3E0FDA3E0FEA3E0FF7801121238D1
:1000FB008039D390607DE0941A90607CE09400503E
:10010B003290607EE0FCA3E0FDA3E0FEA3E0FF786D
:10011B000112123890607E12124B90607EE0FCA3AD
:10012B00E0FDA3E0FEA3E04401FFEC90607E121221
:10013B004B8054D390607DE0949690607CE094006B
:10014B004045D3A3E094A490607CE0940150272019
:10015B00033590607EE0FCA3E0FDA3E0FEA3E0FF8F
:10016B001211F1906033EFF090607E121257000085
:10017B000000D2038011D390607DE094B090607C3E
:10018B00E094045002D20090607CE4F0A3F0C2191A
:10019B00906083E004F07006906082E004F0906061
:1001AB0082E0FEA3E0FFD39414EE9400501B3006C4
:1001BB0002D280300702D285300802D28630090283
:1001CB00D293300A0ED294800AC280C285C286C2F4
:1001DB0093C294C3EF9464EE94004007906082E462
:0301EB00F0A3F08E
:1001EE00906091E004F0E0C3940A50030204B5E479
:0101FE00F010
:1001FF00906084E004F0E094C850030202FCE4F045
:10020F0090604DE064046005E06408705B201A2C78
:10021F0090600FE024FE60111460121460131460DC
:10022F001424047012D206800ED207800AD20880DE
:10023F0006D2098002D20AD21A0202FC90600FE0A5
:10024F0024FE6011146012146013146014240470DF
:10025F0012C206800EC207800AC2088006C2098039
:10026F0002C20AC21A0202FC90604DE064037017CA
:10027F00201A0AD206D207D208D2098066C206C255
:10028F0007C208C209806290604DE06402705E9000
:10029F006018E0D39402500F201A06D207D21A80AA
:1002AF004CC207C21A8046906018E0D39403500FD7
:1002BF00201A06D208D21A8034C208C21A802E9091
:1002CF006018E0D39404500F201A06D209D21A8076
:1002DF001CC209C21A8016906018E0D39405500D05
:0D02EF00201A06D20AD21A8004C20AC21ACE
:1002FC00300F26906050E004F0700690604FE004E0
:10030C00F0C3906050E0948890604FE094134009E3
:09031C00E4F0A3F090602B04F062
:10032500906085E004F0E0C394C84007E4F0906075
:030335000004F0D1
:10033800906010E0B40136906087E004F070069099
:100348006086E004F0C3906087E094F0906086E0F7
:1003580094555005121ED0801BD3906087E0942CD2
:10036800906086E094565005121EC2800790608601
:04037800E4F0A3F01A
:10037C00906051E06011906013E0906088F0A3E40D
:10038C00F0A3F0906051F0906088E0607190608A0A
:10039C00E004F07006906089E004F0C390608AE09D
:1003AC0094A1906089E09400501090604DE0604BF7
:1003BC00E064026046200543803CC390608AE09470
:1003CC0042906089E09401501290604DE0600AE028
:1003DC00640260052005028022801B906089E4F095
:1003EC00A3F0906088E014F090604DE0600DE06444
:0E03FC00026008200505121EDD800312000FAE
:10040A00300E23906035E004F07006906034E0040A
:10041A00F0C3906035E09488906034E0941340060D
:06042A00E4F0A3F0D2048F
:1004300030014590608BE0FCA3E0FDA3E0FEA3E06B
:100440002401FFE43EFEE43DFDE43CFC90608B12A1
:10045000124B90602FE0FCA3E0FDA3E0FEA3E0FFC1
:1004600090608BE0F8A3E0F9A3E0FAA3E0FBC312ED
:1004700012144010D20D800C90608B1212570000A5
:040480000000C20DA9
:1004840020022E906090E004F0700690608FE004EB
:10049400F090608FE0FEA3E0FFE4FCFD7B607AEA6D
:1004A400F9F8D31211FE500990608FE4F0A3F0D252
:0104B4000245
:1004B500906004E0706190604DE0605B906093E057
:1004C50004F07006906092E004F0C3906093E094AD
:1004D50010906092E094274045E4F0A3F074FFFF8C
:1004E500FEFDFC906014E0F8A3E0F9A3E0FAA3E0B8
:1004F500FB1212145028906014E0FCA3E0FDA3E069
:10050500FEA3E02401FFE43EFEE43DFDE43CFC9057
:0E051500601412124B8007906092E4F0A3F085
:10052300300B61906094E004F0E0C394644055E4C0
:10053300F0906001E0FEA3E0FFD390602DE09F9078
:10054300602CE09E400EA3E024FFF090602CE0348A
:10055300FFF08025906001E0FEA3E0FFC390602DD3
:10056300E09F90602CE09E500EA3E004F0700A9090
:10057300602CE004F08002C20B90602CE0FEA3E04C
:04058300FF121EEA5B
:10058700D007D006D005D004D003D002D001D000C8
:0B059700D0D0D082D083D0F0D0E03272
:101CFD0078E3E254CFF2E24410F29071947410F054
:101D0D0075D10278A17409F218745FF278A3E4F228
:0C1D1D0018F2789D74A0F21874E2F22213
:101D9F009071947410F075D10278A17401F21874D7
:101DAF00CBF278A3E4F218F2789D74A0F21874E2E3
:021DBF00F2220E
:101D7A009071947410F075D10278A17409F21874F4
:101D8A005FF278A37401F21874AFF2789D74A0F22E
:051D9A001874E2F222C2
:081F2A00E478A3F2EF18F222A3
:0D1ED0009071947410F0789CE24402F222AC
:0E1EC200789CE254FCF2907194E4F0C2A622E7
:101C670078E2E254CFF2E24410F2907190740FF0F0
:101C770075D1049071057401F09071047476F09039
:101C87007107E4F090710674BBF090710174A0F0D5
:071C970090710074FEF022C1
:0D1EDD00907190740FF090710074FEF0226F
:0F000F00907100E054FCF0907190E4F0C2A222D6
:0D1EEA00AC06EC907107F0EF907106F0224D
:101DC100736C6565700A0077616B652075700A0038
:0B1DD1007379732072657365740A005B
:1018B60041603300C100C103416000004160100077
:1018C60041600400C10F41602B0042604F0000C11F
:1018D6000EC1044260340000C102C10C4460140011
:1018E6000000004160030142602C000041603600A8
:1018F600416037004160510041601300C105C10BD2
:101906004260010000C10144602F00000000C10DCB
:1019160052603B0138011300EE00C900A3007E00AF
:10192600590034001152601900110037005C008123
:1019360000A600CC00F5011601384A600501380101
:071946001500F100D500BA05
:101B110078C2E254FCF2E24401F290717EE4F0C238
:101B21008008E254F3F2E24404F2907183E4F0C2DB
:101B310085E254CFF2E24410F2A3E4F0C28678D2F7
:101B4100E2543FF2E24440F2907189E4F0C293081A
:0E1B5100E254FCF2E24401F2A3E4F0C294225A
:101EAF009060037401F090600F7405F090604E74B1
:031EBF0002F0220C
:101E4300C20BC201C20D121DDCE490604DF0906024
:071E53002CF0A3F002000FC8
:101BED00907116E0440CF0A374FFF0A3E04480F074
:101BFD00907162E05477F090715AE054FCF090715E
:101C0D001BE0548FF0907130E054FCF0E4F5AC9093
:101C1D007119E0549FF0907120E0547FF075BAC1B6
:011C2D002294
:101CCE00907118E0547FF0A3E04460F090715AE0F8
:101CDE004403F090711BE04470F0907120E044805A
:0F1CEE00F0438E1075AC58907130E04403F02233
:101B5F007BFF7A1D79C1120A949071787414F04347
:101B6F00AA02D2AF75D120907157740BF0907156B5
:101B7F0074B7F090715374A0F090715274F9F053E0
:101B8F00BAF7758E50758D15121BED121CCE538D35
:0A1B9F00FE7BFF7A1D79C8020A944C
:101AB50075D9DD12195A75D95590715EE054FEF04D
:101AC50075D9BB121DF7121E11121CFD121EC21272
:101AD5001C6712000F121B1178E2E2543FF278E006
:101AE500E24408F2121C9ED2067FE87E03121E2BEA
:101AF500121EAF121C2E121E867F01121F197BFFAC
:0C1B05007A1D79D1120A94121B5F80FB3C
:08194D004160AE004160AF00F3
:090D8E00906000E070030210C146
:100D9700E4906095F0A3F0A3F0A3F0A3121257001C
:100DA700000000E490609DF0A3F0A3F0A3F0906032
:100DB70000F0906004E07020FF121E9BC390605308
:100DC700E09490906052E0940340069060047401B0
:100DD700F0906004E07059227F01121E9BC390605F
:100DE70053E09493906052E0940D4009E490609D25
:100DF700F0A30210B1D3906053E094F0906052E0FA
:100E070094015021E490609DF0A3F090609DE0FC78
:100E1700A3E0FDEC78A3F2ED18F2121EC2E4906095
:100E270004F0020F25906004E0640470030210C10F
:100E3700121E5A906004E0B4012AD390603AE094FD
:100E4700CC906039E0940A5015906010E06401700E
:100E5700030210C1121D7A9060107401F022906095
:100E6700047402F0C390603AE09447906039E094CC
:100E77000E406C906004E0640360649060AFE0042F
:100E8700F09060AEE0D394054004E024FEF090605B
:100E9700AEE0C3940A5004A3E004F09060AFE0C34F
:100EA70094644040E4F09060AE7405F0E0FF7E008B
:100EB7007C017DCB1212AEE47B64FAF9F812115F64
:100EC70090609DEEF0A3EFF090609DE0FCA3E0FD45
:100ED700EC78A3F2ED18F29060047403F08005E457
:100EE7009060AFF0906004E064037037C390603A9D
:100EF700E09433906039E0940F50030210C1E490FE
:100F0700609DF0A3F090609DE0FCA3E0FDEC78A36A
:100F1700F2ED18F2121EC29060047404F0E49060BF
:100F270010F022906004E0640260030210C1906038
:100F370010E064026009121D9F9060107402F012A5
:100F47001E5AC390603AE09433906039E0940E40A3
:100F57000C90609F7413F0A37488F08022C3906094
:100F67003AE09499906039E0940D90609F4009743D
:100F770033F0A374C2F080077467F0A37484F0128F
:100F87001E70906011E0FEA3E0FFE4FCFD7BC07AD9
:100F9700277909F81210D4E4FB7A10F9F812115FD7
:100FA700E47B4CFAF9F812115F906095EEF0A3EF2D
:100FB700F0906039E0FEA3E0FF7C0F7DA01212AE37
:100FC700E4FB7A10F9F812115F906097EEF0A3EF47
:100FD700F0C3906012E094FF906011E0940F400F0F
:100FE7009060AEE0D39408500302109302109090E3
:100FF700609FE064677004A3E064846014C390603A
:1010070096E0947C906095E094075005E4F0A30483
:10101700F0906097E0FEA3E0FF906095E0FCA3E00E
:10102700FD1212AEE47BE87A03F9F812115F9060C3
:101037009912124B90609FE0FEA3E0FFE4FCFD9045
:101047006099E0F8A3E0F9A3E0FAA3E0FBC312126A
:1010570014500E9060AEE0C394645030E004F0800A
:101067002B90609FE0FEA3E0FFE4FCFD906099E019
:10107700F8A3E0F9A3E0FAA3E0FBD3121214400CA3
:101087009060AEE0D394084003E014F09060AEE0C7
:10109700FF7E007C017DCB1212AEE47B64FAF9F887
:1010A70012115F90609DEEF0A3EFF090609DE0FC61
:0A10B700A3E0FDEC78A3F2ED18F2BF
:0110C100220C
:041955004160B0003D
:1005A200906004E0600AC203C200E49060B0F022EE
:1005B20020030302096BC203906033E09060B0F045
:1005C200906033E0121288063502082A1808CF22FA
:1005D200081E3008AE6207DA68063C90078B980561
:1005E200F7A2069EA8093AB0090DC206E6E0086E17
:1005F200E20000096B300F03020A28121DDCD20E42
:1006020090604DE07002D20C90604DE0C3940650B1
:1006120002801890604DE0B401057408F0800F90DC
:10062200604DE004F0E0D3940940037407F0C20B7C
:1006320002096B7D017F04020822C20B7D027F0446
:09064200121BA9300F0302096B21
:10064B00E49060B1F09060B1E0FFC394085026EFE6
:10065B0025E0243BF582E43460F583E0FEA3E0FF64
:10066B00D390602DE09F90602CE09E50089060B17D
:10067B00E004F080D09060B1E025E0243BF582E40B
:10068B003460F583E0FFA3E090602CCFF0A3EFF094
:10069B0002077DC20B7D037F04121BA9300F0302DF
:1006AB00096B300E0302096B90604DE07003020979
:1006BB006B90600FE025E02403F582E43460F58352
:1006CB00E0FFA3E090602CCFF0A3EFF090602F122F
:1006DB00125700000BB8D2010209367D047F0412B9
:0806EB001BA9300F0302096B8B
:1006F300E49060B1F09060B1E0FFC394085026EF3E
:1007030025E02419F582E43460F583E0FEA3E0FFDD
:10071300C390602DE09F90602CE09E40089060B1F4
:10072300E004F080D090600FE025E02403F582E43C
:100733003460F583E0FEA3E0FF9060B1E025E024A0
:1007430019F582E43460F583E0FCA3E0FDD39FEC6C
:100753009E401D90600FE025E02403F582E43460A1
:10076300F583E0FFA3E090602CCFF0A3EFF08008C7
:1007730090602CECF0A3EDF0C20B90602CE0FEA394
:05078300E0FF121EEA78
:1007880002096B7D057F04121BA9200F40200E3D36
:1007980090604DE06037C20190600FE025E02403CF
:1007A800F582E43460F583E0FFA3E090602CCFF09D
:1007B800A3EFF09060141212570000000090602C14
:1007C800E0FEA3E0FF121EEA7F03121EF7C20B022F
:1007D800096B7D017F05121BA9200F35200E329071
:1007E800604DE0602C90600FE025E02403F582E482
:1007F8003460F583E0FFA3E090602CCFF0A3EFF026
:1008080090602F12125700001388D2017F03121E26
:10081800F7C20B02096B7D027F05121BA9C20B02EE
:10082800096B7D037F05121BA9200F35200E32901E
:10083800604DE0602C90600FE025E02403F582E431
:100848003460F583E0FFA3E090602CCFF0A3EFF0D5
:1008580090602F12125700001F40D2017F03121E12
:10086800F7C20B02096BC20B300F0302096B121D92
:10087800DC90604DE0701FD205D20C90600FE0252F
:10088800E02403F582E43460F583E0FFA3E09060A0
:100898002CCFF0A3EFF090604D7403F0D20F90606E
:1008A8000FE0FF020968300F0302096B300E0302E4
:1008B800096BC201121DDCC20C90604D7401F0C2BC
:1008C8000B121C2E02096B300F0302096B300E034A
:1008D80002096B90604DE0700302096BC20BC20104
:1008E800D390602DE0940090602CE0940040741246
:1008F8001DDCE490604DF07F02121EF7E490602C3E
:10090800F0A3F0805E200F5B200E5890604DE060F1
:1009180052C20B90600FE025E02403F582E43460B6
:10092800F583E0FFA3E090602CCFF0A3EFF07F0306
:10093800802E200F2E200E2B90604DE06025C20BDC
:1009480090600FE025E02403F582E43460F583E04D
:10095800C313FFA3E01390602CCFF0A3EFF07F0345
:10096800121EF7200003020A28C200D390602DE06F
:10097800940090602CE094005003020A28E0FFA342
:10098800E0906001CFF0A3EFF09060B0E0FF64E08A
:10099800705590600FE025E02403F582E43460F59B
:1009A80083E0FCA3E024F7FDEC34FFFCC390602D4A
:1009B800E09D90602CE09C5010906002E02409F0CB
:1009C800906001E03400F0801B90600FE025E02487
:1009D80003F582E43460F583E0FDA3E0906001CD87
:1009E800F0A3EDF0D20B22EFB4903590604BE0FE0F
:1009F800A3E0FF2409FDE43EFCD390602DE09D9028
:100A0800602CE09C4010906002E024F7F0906001B8
:100A1800E034FFF08008906001EEF0A3EFF0D20B15
:010A280022AB
:101E8600121F0EE490602EF0906018F090604FF0F4
:051E9600A3F0C20E22C2
:0B1F0E00C206C207C208C209C20A22B4
:101DDC00121F0EC20FE490602BF090604FF0A3F036
:0B1DEC00C20EC204906034F0A3F0228D
:091F1900121F0E90604DEFF02242
:101BA900300F40EFB4041F90600FEDF0E025E02402
:101BB90003F582E43460F583E0FBA3E090602CCB6D
:101BC900F0A3EBF0800590604EEDF090604DEFF0E2
:101BD900121F0EE490602BF090604FF0A3F0AF0558
:041BE900121EF722AF
:1013530090604DE064016008E064076003021431AB
:10136300D206D390603AE094CC906039E0940C407C
:10137300089060387405F08048D390603AE0943365
:10138300906039E0940C40089060387404F0803128
:10139300D390603AE09466906039E0940B400890F3
:1013A30060387403F0801AD390603AE094999060A7
:1013B30039E0940A90603840057402F080037401A8
:1013C300F090602EE0700A906038E090602EF0801C
:1013D3001D90602EE0FF906038E0D39F5003200201
:1013E3000890602EE0906038F0300202C2029060F4
:1013F30038E0C394054004D20A8002C20A906038E0
:10140300E0C394044004D2098002C209906038E02A
:10141300C394034004D2088002C208906038E0C33A
:1014230094024005D207021544C207021544906096
:101433004DE064056004E0B4092190604EE024FEB1
:10144300600F14601124026003021544D2060215D2
:1014530044D207021544D20802154490604DE0645B
:10146300026003021544D206D390603AE094CC9014
:101473006039E0940C40089060387405F08048D3DC
:1014830090603AE09433906039E0940C40089060A7
:10149300387404F08031D390603AE09466906039F8
:1014A300E0940B40089060387403F0801AD3906086
:1014B3003AE09499906039E0940A9060384005745A
:1014C30002F080037401F0906004E064036004E0C0
:1014D300B404069060387406F090602EE0700A90B1
:1014E3006038E090602EF0801D90602EE0FF9060E9
:1014F30038E0C39F400320020890602EE0906038DC
:10150300F0300202C202906038E0906018F07F0170
:101513007E00121E2B906038E0C394034002D20772
:10152300906038E0C394044002D208906038E0C36E
:1015330094054002D209906038E0C394064002D279
:101543000A90602BE06017E4F0C20FC205300C086C
:10155300C20C90604DF0800690604D7401F0300431
:1015630016C204C20E300C09C20CE490604DF08028
:101573000690604D7401F090604DE07003121F0EF1
:011583002245
:0C1EF700906013EFF09060517401F02235
:101C2E0090600FE025E02403F582E43460F583E054
:101C3E00FFA3E090602CCFF0A3EFF090602CE0FEBD
:101C4E00A3E0FF121EEA121EDD7F03121EF7906044
:091C5E00141212570000000022CC
:10158400906004E0600302171D90604DE070030258
:10159400171D90604EE064017064906003E0FF7E6C
:1015A400007C047DB01210C2E4FCFD906014E0F8ED
:1015B400A3E0F9A3E0FAA3E0FBC312121450030260
:1015C400171290601412125700000000906003E09C
:1015D400B401057403F08007906003E02403F090E5
:1015E400602CE0FEA3E0FFE4FCFD7B36FAF9F8D3BF
:1015F400121214506590602DE024DB0216FF9060F7
:101604002CE0FEA3E0FFE4FCFD7BAFFAF9F8C31283
:1016140012145049E47F28FEFDFC906014E0F8A306
:10162400E0F9A3E0FAA3E0FBC3121214500302177B
:10163400129060141212570000000090602CE0FE1B
:10164400A3E0FFE4FCFD7B13FAF9F8D31212145063
:101654000990602DE024FE0216FF02170990602C09
:10166400E0FEA3E0FFE4FCFD7B9DFAF9F8C312124F
:10167400145047E47FF0FEFDFC906014E0F8A3E012
:10168400F9A3E0FAA3E0FBC31212145003021712E9
:101694009060141212570000000090602CE0FEA32A
:1016A400E0FFE4FCFD7B13FAF9F8D312121450089E
:1016B40090602DE024FE8043804BE47FA47E01FDF6
:1016C400FC906014E0F8A3E0F9A3E0FAA3E0FBC304
:1016D4001212144039906014121257000000009046
:1016E400602CE0FEA3E0FFE4FCFD7B13FAF9F8D3E1
:1016F400121214501090602DE024FEF090602CE043
:1017040034FFF0800990602CE4F0A37411F0906031
:0A1714002CE0FEA3E0FF121EEA2203
:101A3500021AB5E493A3F8E493A34003F68001F2F8
:101A450008DFF48029E493A3F85407240CC8C333B2
:101A5500C4540F4420C8834004F456800146F6DF81
:101A6500E4800B010204081020408090187EE47E7B
:101A7500019360BCA3FF543F30E509541FFEE49376
:101A8500A360010ECF54C025E060A840B8E493A33D
:101A9500FAE493A3F8E493A3C8C582C8CAC583CA68
:101AA500F0A3C8C582C8CAC583CADFE9DEE780BE20
:01195900008D
:1010C200EF8DF0A4A8F0CF8CF0A428CE8DF0A42E42
:0210D200FE22FC
:1010D400E88FF0A4CC8BF0A42CFCE98EF0A42CFCBB
:1010E4008AF0EDA42CFCEA8EF0A4CDA8F08BF0A439
:1010F4002DCC3825F0FDE98FF0A42CCD35F0FCEB98
:101104008EF0A4FEA9F0EB8FF0A4CFC5F02ECD395C
:0F111400FEE43CFCEAA42DCE35F0FDE43CFC22C9
:1011230075F008758200EF2FFFEE33FECD33CDCC83
:1011330033CCC58233C5829BED9AEC99E582984006
:101143000CF582EE9BFEED9AFDEC99FC0FD5F0D6E3
:10115300E4CEFBE4CDFAE4CCF9A88222B800C1B90D
:101163000059BA002DEC8BF084CFCECDFCE5F0CB4B
:10117300F97818EF2FFFEE33FEED33FDEC33FCEB84
:1011830033FB10D703994004EB99FB0FD8E5E4F93F
:10119300FA227818EF2FFFEE33FEED33FDEC33FC2C
:1011A300C933C910D7059BE99A4007EC9BFCE99A20
:1011B300F90FD8E0E4C9FAE4CCFB2275F010EF2F65
:1011C300FFEE33FEED33FDCC33CCC833C810D70765
:1011D3009BEC9AE899400AED9BFDEC9AFCE899F8A0
:0E11E3000FD5F0DAE4CDFBE4CCFAE4C8F92233
:0D11F100CFF4CFCEF4CECDF4CDCCF4CC2293
:1011FE00EB9FF5F0EA9E42F0E99D42F0EC6480C868
:06120E0064809845F02207
:10121400EB9FF5F0EA9E42F0E99D42F0E89C45F030
:0112240022A7
:10122500E8600FECC313FCED13FDEE13FEEF13FFA7
:03123500D8F122CB
:10123800E8600FEFC333FFEE33FEED33FDEC33FC14
:03124800D8F122B8
:0C124B00ECF0A3EDF0A3EEF0A3EFF02216
:10125700A8828583F0D083D08212126E12126E128A
:10126700126E12126EE473E493A3C583C5F0C583AF
:10127700C8C582C8F0A3C583C5F0C583C8C582C8E1
:011287002244
:10128800D083D082F8E4937012740193700DA3A3F5
:1012980093F8740193F5828883E473740293686009
:0612A800EFA3A3A380DF09
:1012AE00EC8EF0A4CCC5F0CCCDF8EFA4CEC5F02DCD
:1012BE00FDE43CFCE8A42EC8C5F03DFDE43CFCEF8B
:0D12CE00A4FFE5F028FEE43DFDE43CFC2219
:100A2900E5082457F582E43460F583E0050822904F
:100A39006054301703906057E475F00112133302C4
:100A490012DB2010E97F2ED2108018EF540F24906A
:100A5900D43440D4FF30140BEF24BFB41A00500330
:100A69002461FFE50960021509050CE50C70020512
:100A79000B30170E906054E475F001121333EF0236
:100A89001321021F227403D2178003E4C217F50849
:100A990090605412134AE4F509F50BF50CE5096069
:100AA900077F20120A6C80F5750AFFC211C210C2B5
:100AB90012C213C215C216C218120A38FF700D30BD
:100AC90017057F00120A7DAF0CAE0B22B4255FC259
:100AD900D5C214120A38FF24D0B40A00501A75F08E
:100AE9000A780930D50508B6FF0106C6A426F620FE
:100AF900D5047002D21380D924CFB41A00EF500460
:100B0900C2E5D214020C7ED21180C6D21080C0D2A6
:100B19001280BCD2D580BAD21580B47F20120A6C5B
:100B29002012077401B5090040F1120A29FF120ABF
:100B39006C020AA6D218D2168095120A29FB120A4B
:100B490029FA120A29F94A4B7006794F7A0D7BFF67
:100B590020122EE509602A7E008E8275830012120A
:100B6900F460060EEE650A70F0C2D5EBC0E0EAC08B
:100B7900E0E9C0E0EE120CC5D0E0F9D0E0FAD0E02F
:100B8900FB1212DBFF60AAEBC0E0EAC0E0E9C0E0BB
:100B9900120A6CD0E02401F9D0E03400FAD0E0FB6D
:100BA900E50A0460DCD50AD980877BFF7A0C79C114
:100BB900D212809C791080027908C216C218800866
:100BC900D2D5790A8004790AC2D5E50A047002F5FA
:100BD9000AE4FAFDFEFF120A29FC7B082011131210
:100BE9000A29FD7B1030100A120A29FE120A29FF70
:100BF9007B20EC3382D592D55013C3E43010069F85
:100C0900FFE49EFEE42011039DFDE49CFCE4CBF887
:100C1900C211EC700CCFCECDCCE824F8F870F3807B
:100C290017C3EF33FFEE33FEED33FDEC33FCEB334B
:100C3900FB994002FB0FD8E9EB301105F8D0E0C46D
:100C490048B211C0E00AEC4D4E4F78207B0070C2CB
:100C5900EAB50A0040BCC0E0120CC7D0F0D0E020D1
:100C69001104C4C0E0C4B211C0F0120A55D0F0D5C5
:100C7900F0EB020AA61212880B43530BBD580B1452
:100C89004C0B10420BC14F0BC9440BC9490B2943EB
:080C99000BCF550BB3460BB362
:100CA100450BB3470D6F500B182D0B1C2E0B3F2B13
:100CB1000B20230B3D200D582A0AD84800000B3782
:100CC1003F3F3F00790AA2D5201314301509B9100E
:100CD100020404B9080104A2D5201602500104201F
:100CE10012689212B509005034C0E07F2030131908
:100CF1007F30A21272167215500F120D1EC212C24F
:100D010016C215C2187F30800F301503E9C0E012FA
:100D11000A6C301503D0E0F9D0E0B509CC301517D5
:100D21007F30B9100C120A6C7F583014077F78801D
:100D310003B90803120A6C3012057F2D020A6C7F79
:100D4100202018F87F2B2016F322921280CF286ED4
:100D5100756C6C2900D211120A293011F8C2117870
:100D61000930D50108F6020AD82D50434958120A14
:100D7100292403B405004001E4900D6A93120A5D31
:0D0D8100743A120A5DD213750904020BBD0D
:1012DB00BB010689828A83E0225002E722BBFE0211
:0912EB00E32289828A83E4932244
:1012F400BB010CE58229F582E5833AF583E02250AF
:1013040006E92582F8E622BBFE06E92582F8E222F8
:0D131400E58229F582E5833AF583E4932212
:10132100BB010689828A83F0225002F722BBFE01AB
:02133100F322A5
:10133300F8E0FBA3A3E0F925F0F0E5821582700243
:071343001583E0FA38F022E7
:09134A00EBF0A3EAF0A3E9F022A4
:00000001FF
