:0300000002179D47
:0C179D00787FE4F6D8FD7581220217E485
:0C000300000000000000000000000000F1
:0B1C2B00EF1FAC0670011E4C70F6228B
:101B5300AB07AA06EB1BAE0270011A4E60097FAAFF
:081B63007E05121C2B80ED220F
:10157D00907120E04480F07F057E00121C2BE4FF6B
:10158D00FE121B5375A75575AC589071327450F0FF
:10159D009071307403F0907136742FF07F18EF2432
:1015AD0066FDE434718D82F583E4F00FEFB433EE14
:1015BD00904011E4935407FF90711CE054F84FF0E4
:1015CD00904017E493547FFF90711DE054804FF0CD
:1015DD00904010E493FF5401C43333335480FE9094
:1015ED007123E0547F4EF0EFC313543F4440FFA3EB
:1015FD00E054804FF0904012E493FF540FFE907131
:10160D0046E054F04EF0EFC4540FFF90714FE0548C
:10161D00F04FF0904013E493543FFF907140E0542D
:10162D00C04FF0904014E493907126F0904015E473
:0E163D0093907128F0904016E49390712AF07B
:01164B00227C
:081C4A008FD7E5D430E4FB2242
:101B1F0078E3E2543FF2E24440F29071957404F09E
:0A1B2F0075D60175D59F75D21022FE
:0514A100426084000020
:1019E20078E3E2440CF2E24403F2E244C0F2786AA1
:1019F200E24478F27591FF907123E054D8F0E0440C
:0F1A020059F09071227407F0439E70439940226F
:101A9500907123E054D8F0EF7006E04459F0800BC4
:101AA500EFB40107907123E0445BF07869E24448A4
:081AB500F27F017E00021B53C9
:101A6C00539940EFB401054399158010EFB402056A
:101A7C004399148007EFB403034399177869E24440
:091A8C0048F27F017E00021B53A9
:10134100E490607AF0A3F090607C12112300000019
:1013510000E4906080F0A3F074FF906082F0A3F04D
:10136100E4906079F07869E24401F2786BE230E16F
:10137100FAAF93EF75F010A4FFE594C4540FFDEF9D
:101381004DFF90607AE5F0F0A3EFF07402F2906007
:1013910079E0C39402406D906080E0FEA3E0FFD34A
:1013A10090607BE09F90607AE09E400CE0FFA3E0BC
:1013B100906080CFF0A3EFF0906082E0FEA3E0FFA9
:1013C100C390607BE09F90607AE09E500CE0FFA3A9
:1013D100E0906082CFF0A3EFF090607CE0F8A3E0B2
:1013E100F9A3E0FAA3E0FB90607AE0FEA3E0FFE45A
:1013F100FCFDEB2FFFEA3EFEED39FDEC38FC906081
:101401007C121117906079E004F0E064146003022B
:10141100136690607CE0FCA3E0FDA3E0FEA3E0FF87
:10142100C006C007906080E0FEA3E0FBAA06D007DB
:10143100D006C3EF9BFFEE9AFEED9400FDEC940005
:10144100FC90607C12111790607CE0FCA3E0FDA38E
:10145100E0FEA3E0FFC006C007906082E0FEA3E0CB
:10146100FBAA06D007D006C3EF9BFFEE9AFEED94D0
:1014710000FDEC9400FC90607C12111790607CE000
:10148100FCA3E0FDA3E0FEA3E0FF78041210F190BD
:0F149100607AEEF0A3EFF090607AE0FEA3E0FF48
:0114A0002229
:101B8200E4FF121A957F02121A6C12134190603907
:061B9200EEF0A3EFF022CB
:101BC300121A957F01121A6C121341906052EEF0B3
:041BD300A3EFF0226A
:101B98007F01121A957F03121A6C1213419060117B
:061BA800EEF0A3EFF022B5
:1014A600C1104160690041605C00C11141605D008E
:1014B60042605E000041606000426061000044607E
:1014C6006300000000426067000042606A0000415D
:0314D600606C0047
:101B390043A820D2AF75D1017895E4F2187424F244
:0A1B4900789174A0F21874FDF222E6
:03001E00020021BC
:10002100C0E0C0F0C083C082C0D075D000C000C0A5
:1000310001C002C003C004C005C006C0077891E238
:0A00410020E703020587E24480F285
:10004B00D3906055E09414906054E09405500CA349
:10005B00E004F07006906054E004F030A356D21028
:10006B00D3906055E094B0906054E0940450030238
:10007B00019BE4FFFEFDFC906056E0F8A3E0F9A3C2
:10008B00E0FAA3E0FB1210E06025200322906056FB
:10009B00E0FCA3E0FDA3E0FEA3E0FF1210BD906027
:1000AB0033EFF090605612112300000000D203C210
:1000BB000002019B201003020199D3906055E0943C
:1000CB0008906054E094005005C200020192D39056
:1000DB006055E09412906054E09400501590605677
:1000EB00E0FCA3E0FDA3E0FEA3E0FF780112110406
:1000FB008039D3906055E0941A906054E09400508E
:10010B0032906056E0FCA3E0FDA3E0FEA3E0FF7895
:10011B0001121104906056121117906056E0FCA367
:10012B00E0FDA3E0FEA3E04401FFEC90605612114A
:10013B00178054D3906055E09496906054E09400EF
:10014B004045D3A3E094A4906054E0940150272041
:10015B000335906056E0FCA3E0FDA3E0FEA3E0FFB7
:10016B001210BD906033EFF0906056121123000017
:10017B000000D2038011D3906055E094B09060548E
:10018B00E094045002D200906054E4F0A3F0C2104B
:10019B0090605BE004F0700690605AE004F09060B1
:1001AB005AE0FEA3E0FFD39414EE9400501B3006EC
:1001BB0002D280300702D285300802D28630090283
:1001CB00D293300A0ED294800AC280C285C286C2F4
:1001DB0093C294C3EF9464EE9400400790605AE48A
:0301EB00F0A3F08E
:1001EE00906069E004F0E0C3940A50030204B5E4A1
:0101FE00F010
:1001FF0090605CE004F0E094C850030202FCE4F06D
:10020F0090604DE064046005E06408705B20112C81
:10021F0090600FE024FE60111460121460131460DC
:10022F001424047012D206800ED207800AD20880DE
:10023F0006D2098002D20AD2110202FC90600FE0AE
:10024F0024FE6011146012146013146014240470DF
:10025F0012C206800EC207800AC2088006C2098039
:10026F0002C20AC2110202FC90604DE064037017D3
:10027F0020110AD206D207D208D2098066C206C25E
:10028F0007C208C209806290604DE06402705E9000
:10029F006018E0D39402500F201106D207D21180BC
:1002AF004CC207C2118046906018E0D39403500FE0
:1002BF00201106D208D2118034C208C211802E90AC
:1002CF006018E0D39404500F201106D209D2118088
:1002DF001CC209C2118016906018E0D39405500D0E
:0D02EF00201106D20AD2118004C20AC211E9
:1002FC00300F26906050E004F0700690604FE004E0
:10030C00F0C3906050E0948890604FE094134009E3
:09031C00E4F0A3F090602B04F062
:1003250090605DE004F0E0C394C84007E4F090609D
:030335000004F0D1
:10033800906010E0B4013690605FE004F0700690C1
:10034800605EE004F0C390605FE094F090605EE06F
:1003580094555005121BF8801BD390605FE0942CD5
:1003680090605EE094565005121BEA800790605E2C
:04037800E4F0A3F01A
:10037C00906051E06011906013E0906060F0A3E435
:10038C00F0A3F0906051F0906060E060719060625A
:10039C00E004F07006906061E004F0C3906062E0ED
:1003AC0094A1906061E09400501090604DE0604B1F
:1003BC00E064026046200543803CC3906062E09498
:1003CC0042906061E09401501290604DE0600AE050
:1003DC00640260052005028022801B906061E4F0BD
:1003EC00A3F0906060E014F090604DE0600DE0646C
:0E03FC00026008200505121C05800312000F88
:10040A00300E23906035E004F07006906034E0040A
:10041A00F0C3906035E09488906034E0941340060D
:06042A00E4F0A3F0D2048F
:10043000300145906063E0FCA3E0FDA3E0FEA3E093
:100440002401FFE43EFEE43DFDE43CFC90606312C9
:10045000111790602FE0FCA3E0FDA3E0FEA3E0FFF6
:10046000906063E0F8A3E0F9A3E0FAA3E0FBC31215
:1004700010E04010D20D800C906063121123000038
:040480000000C20DA9
:1004840020022E906068E004F07006906067E0043B
:10049400F0906067E0FEA3E0FFE4FCFD7B607AEA95
:1004A400F9F8D31210CA5009906067E4F0A3F0D2AF
:0104B4000245
:1004B500906004E0706190604DE0605B90606BE07F
:1004C50004F0700690606AE004F0C390606BE094FD
:1004D5001090606AE094274045E4F0A3F074FFFFB4
:1004E500FEFDFC906014E0F8A3E0F9A3E0FAA3E0B8
:1004F500FB1210E05028906014E0FCA3E0FDA3E09F
:10050500FEA3E02401FFE43EFEE43DFDE43CFC9057
:0E0515006014121117800790606AE4F0A3F0E2
:10052300300B6190606CE004F0E0C394644055E4E8
:10053300F0906001E0FEA3E0FFD390602DE09F9078
:10054300602CE09E400EA3E024FFF090602CE0348A
:10055300FFF08025906001E0FEA3E0FFC390602DD3
:10056300E09F90602CE09E500EA3E004F0700A9090
:10057300602CE004F08002C20B90602CE0FEA3E04C
:04058300FF121C1235
:10058700D007D006D005D004D003D002D001D000C8
:0B059700D0D0D082D083D0F0D0E03272
:101A400078E3E254CFF2E24410F29071947410F013
:101A500075D10278A17409F218745FF278A3E4F2E8
:0C1A600018F2789D74A0F21874E2F222D3
:101AE2009071947410F075D10278A17401F2187497
:101AF200CBF278A3E4F218F2789D74A0F21874E2A3
:021B0200F222CD
:101ABD009071947410F075D10278A17409F21874B4
:101ACD005FF278A37401F21874AFF2789D74A0F2EE
:051ADD001874E2F22282
:081C5200E478A3F2EF18F2227E
:0D1BF8009071947410F0789CE24402F22287
:0E1BEA00789CE254FCF2907194E4F0C2A622C2
:10197A0078F2E254FCF2E24401F2907196740FF0AC
:10198A0075D1049071057401F09071047476F09029
:10199A007107E4F090710674BBF090710174A0F0C5
:0719AA0090710074FEF022B1
:0D1C0500907196740FF090710074FEF02243
:0F000F00907100E054FCF0907196E4F0C2B022C2
:0D1C1200AC06EC907107F0EF907106F02227
:1019B10090712CE054FCF078E2E244FCF290712B3F
:1019C100E04420F0A3E04420F0A3E04420F0A3E0B1
:1019D1004408F090712574CBF090712FE04401F030
:0119E10022E3
:1014D90041603300C100C103416000004160100058
:1014E90041600400C10F41602B0042604F0000C100
:1014F9000EC1044260340000C102C10C44601400F2
:101509000000004160030142602C00004160360088
:10151900416037004160510041601300C105C10BB2
:101529004260010000C10144602F00000000C10DAC
:1015390052603B0138011300EE00C900A3007E0090
:10154900590034001152601900110037005C008104
:1015590000A600CC00F5011601384A6005013801E2
:071569001500F100D500BAE6
:1018290078C2E254FCF2E24401F290717EE4F0C223
:101839008008E254F3F2E24404F2907183E4F0C2C6
:1018490085E254CFF2E24410F2A3E4F0C28678D2E2
:10185900E2543FF2E24440F2907189E4F0C2930805
:0E186900E254FCF2E24401F2A3E4F0C2942245
:101BD7009060037401F090600F7405F090604E748C
:031BE70002F022E7
:101B6B00C20BC201C20D121B04E490604DF09060D9
:071B7B002CF0A3F002000FA3
:10187700121B1F121B39121A40121BEA12197A1275
:10188700000F12182978C0E24404F278C2E254CF5C
:10189700F21219E21219B1D2067FE87E03121B5326
:1018A700121BD7121941121BAE7F01121C417F0177
:0518B7007E00021B533E
:1016FF0075D9DD12157D75D95590715EE054FEF0E8
:10170F0075D9BB121877906004E0600690604DE0C9
:10171F00600F121B82C3906039E0940A5003121BB2
:10172F006B120A291205A2906004E0601790604DB9
:10173F00E06402600AC201121B047F02121C4112F4
:10174F00000F803890604DE0B40231121B047F010E
:10175F00121C4190600FE025E02403F582E4346011
:10176F00F583E0FFA3E090602CCFF0A3EFF0906043
:10177F002CE0FEA3E0FF121C12121C05300D031209
:0E178F001B6B121B82120D5D1211A7021715A3
:08157000416086004160870024
:090A2900906000E07003020D5C16
:100A3200E490606DF0A3F0A3F0A3F0A312112300E1
:100A4200000000E4906075F0A3F0A3F0A3F09060C2
:100A520000F0906004E07020FF121BC3C39060534B
:100A6200E09490906052E094034006906004740118
:100A7200F0906004E07059227F01121BC3C39060A2
:100A820053E09493906052E0940D4009E4906075B5
:100A9200F0A3020D4CD3906053E094F0906052E0CA
:100AA20094015021E4906075F0A3F0906075E0FC31
:100AB200A3E0FDEC78A3F2ED18F2121BEAE49060D9
:100AC20004F0020BC0906004E064047003020D5C49
:100AD200121B82906004E0B4012AD390603AE09441
:100AE200CC906039E0940A5015906010E064017077
:100AF20003020D5C121ABD9060107401F022906026
:100B0200047402F0C390603AE09447906039E09434
:100B12000E406C906004E064036064906087E004BF
:100B2200F0906086E0D394054004E024FEF09060EB
:100B320086E0C3940A5004A3E004F0906087E0C307
:100B420094644040E4F09060867405F0E0FF7E001B
:100B52007C017DCB12117AE47B64FAF9F812102B36
:100B6200906075EEF0A3EFF0906075E0FCA3E0FDFD
:100B7200EC78A3F2ED18F29060047403F08005E4BF
:100B8200906087F0906004E064037037C390603A2D
:100B9200E09433906039E0940F5003020D5CE490CE
:100BA2006075F0A3F0906075E0FCA3E0FDEC78A323
:100BB200F2ED18F2121BEA9060047404F0E4906003
:100BC20010F022906004E064026003020D5C906009
:100BD20010E064026009121AE29060107402F012CE
:100BE2001B82C390603AE09433906039E0940E40E7
:100BF2000C9060777413F0A37488F08022C3906025
:100C02003AE09499906039E0940D906077400974CD
:100C120033F0A374C2F080077467F0A37484F012F7
:100C22001B98906011E0FEA3E0FFE4FCFD7BC07A1C
:100C3200277909F8120FA0E4FB7A10F9F812102BA9
:100C4200E47B41FAF9F812102B90606DEEF0A3EFFD
:100C5200F0906039E0FEA3E0FF7C0F7DA012117AD4
:100C6200E4FB7A10F9F812102B90606FEEF0A3EF0C
:100C7200F0C3906012E094FF906011E0940F400F77
:100C8200906086E0D394085003020D2E020D2B9043
:100C92006077E064677004A3E064846014C39060CA
:100CA2006EE0947C90606DE094075005E4F0A3043C
:100CB200F090606FE0FEA3E0FF90606DE0FCA3E0C7
:100CC200FD12117AE47BE87A03F9F812102B906096
:100CD20071121117906077E0FEA3E0FFE4FCFD9033
:100CE2006071E0F8A3E0F9A3E0FAA3E0FBC31210FD
:100CF200E0500E906086E0C394645030E004F080CF
:100D02002B906077E0FEA3E0FFE4FCFD906071E0D1
:100D1200F8A3E0F9A3E0FAA3E0FBD31210E0400C41
:100D2200906086E0D394084003E014F0906086E07F
:100D3200FF7E007C017DCB12117AE47B64FAF9F824
:100D420012102B906075EEF0A3EFF0906075E0FC4E
:0A0D5200A3E0FDEC78A3F2ED18F227
:010D5C002274
:041578004160880046
:1005A200906004E0600AC203C200E4906088F02216
:1005B20020030302096BC203906033E0906088F06D
:1005C200906033E0121154063502082A1808CF222F
:1005D200081E3008AE6207DA68063C90078B980561
:1005E200F7A2069EA8093AB0090DC206E6E0086E17
:1005F200E20000096B300F03020A28121B04D20E1C
:1006020090604DE07002D20C90604DE0C3940650B1
:1006120002801890604DE0B401057408F0800F90DC
:10062200604DE004F0E0D3940940037407F0C20B7C
:1006320002096B7D017F04020822C20B7D027F0446
:090642001218BC300F0302096B11
:10064B00E490606DF090606DE0FFC394085026EF6E
:10065B0025E0243BF582E43460F583E0FEA3E0FF64
:10066B00D390602DE09F90602CE09E500890606DC1
:10067B00E004F080D090606DE025E0243BF582E44F
:10068B003460F583E0FFA3E090602CCFF0A3EFF094
:10069B0002077DC20B7D037F041218BC300F0302CF
:1006AB00096B300E0302096B90604DE07003020979
:1006BB006B90600FE025E02403F582E43460F58352
:1006CB00E0FFA3E090602CCFF0A3EFF090602F122F
:1006DB00112300000BB8D2010209367D047F0412EE
:0806EB0018BC300F0302096B7B
:1006F300E490606DF090606DE0FFC394085026EFC6
:1007030025E02419F582E43460F583E0FEA3E0FFDD
:10071300C390602DE09F90602CE09E400890606D38
:10072300E004F080D090600FE025E02403F582E43C
:100733003460F583E0FEA3E0FF90606DE025E024E4
:1007430019F582E43460F583E0FCA3E0FDD39FEC6C
:100753009E401D90600FE025E02403F582E43460A1
:10076300F583E0FFA3E090602CCFF0A3EFF08008C7
:1007730090602CECF0A3EDF0C20B90602CE0FEA394
:05078300E0FF121C1252
:1007880002096B7D057F041218BC200F40200E3D26
:1007980090604DE06037C20190600FE025E02403CF
:1007A800F582E43460F583E0FFA3E090602CCFF09D
:1007B800A3EFF09060141211230000000090602C49
:1007C800E0FEA3E0FF121C127F03121C1FC20B02E3
:1007D800096B7D017F051218BC200F35200E329061
:1007E800604DE0602C90600FE025E02403F582E482
:1007F8003460F583E0FFA3E090602CCFF0A3EFF026
:1008080090602F12112300001388D2017F03121C5D
:100818001FC20B02096B7D027F051218BCC20B02B6
:10082800096B7D037F051218BC200F35200E32900E
:10083800604DE0602C90600FE025E02403F582E431
:100848003460F583E0FFA3E090602CCFF0A3EFF0D5
:1008580090602F12112300001F40D2017F03121C49
:100868001FC20B02096BC20B300F0302096B121B6C
:100878000490604DE0701FD205D20C90600FE02507
:10088800E02403F582E43460F583E0FFA3E09060A0
:100898002CCFF0A3EFF090604D7403F0D20F90606E
:1008A8000FE0FF020968300F0302096B300E0302E4
:1008B800096BC201121B04C20C90604D7401F0C296
:1008C8000B12194102096B300F0302096B300E033A
:1008D80002096B90604DE0700302096BC20BC20104
:1008E800D390602DE0940090602CE0940040741246
:1008F8001B04E490604DF07F02121C1FE490602CF2
:10090800F0A3F0805E200F5B200E5890604DE060F1
:1009180052C20B90600FE025E02403F582E43460B6
:10092800F583E0FFA3E090602CCFF0A3EFF07F0306
:10093800802E200F2E200E2B90604DE06025C20BDC
:1009480090600FE025E02403F582E43460F583E04D
:10095800C313FFA3E01390602CCFF0A3EFF07F0345
:10096800121C1F200003020A28C200D390602DE049
:10097800940090602CE094005003020A28E0FFA342
:10098800E0906001CFF0A3EFF0906088E0FF64E0B2
:10099800705590600FE025E02403F582E43460F59B
:1009A80083E0FCA3E024F7FDEC34FFFCC390602D4A
:1009B800E09D90602CE09C5010906002E02409F0CB
:1009C800906001E03400F0801B90600FE025E02487
:1009D80003F582E43460F583E0FDA3E0906001CD87
:1009E800F0A3EDF0D20B22EFB4903590604BE0FE0F
:1009F800A3E0FF2409FDE43EFCD390602DE09D9028
:100A0800602CE09C4010906002E024F7F0906001B8
:100A1800E034FFF08008906001EEF0A3EFF0D20B15
:010A280022AB
:101BAE00121C36E490602EF0906018F090604FF0AA
:051BBE00A3F0C20E229D
:0B1C3600C206C207C208C209C20A228F
:101B0400121C36C20FE490602BF090604FF0A3F0EB
:0B1B1400C20EC204906034F0A3F02267
:091C4100121C3690604DEFF022F8
:1018BC00300F40EFB4041F90600FEDF0E025E024F2
:1018CC0003F582E43460F583E0FBA3E090602CCB5D
:1018DC00F0A3EBF0800590604EEDF090604DEFF0D2
:1018EC00121C36E490602BF090604FF0A3F0AF0523
:0418FC00121C1F2279
:100D5D0090604DE064016008E064076003020E3BA3
:100D6D00D206D390603AE094CC906039E0940C4078
:100D7D00089060387405F08048D390603AE0943361
:100D8D00906039E0940C40089060387404F0803124
:100D9D00D390603AE09466906039E0940B400890EF
:100DAD0060387403F0801AD390603AE094999060A3
:100DBD0039E0940A90603840057402F080037401A4
:100DCD00F090602EE0700A906038E090602EF08018
:100DDD001D90602EE0FF906038E0D39F50032002FD
:100DED000890602EE0906038F0300202C2029060F0
:100DFD0038E0C394054004D20A8002C20A906038DC
:100E0D00E0C394044004D2098002C209906038E026
:100E1D00C394034004D2088002C208906038E0C336
:100E2D0094024005D207020F4EC207020F4E90608A
:100E3D004DE064056004E0B4092190604EE024FEAD
:100E4D00600F14601124026003020F4ED206020FD0
:100E5D004ED207020F4ED208020F4E90604DE06445
:100E6D00026003020F4ED206D390603AE094CC900C
:100E7D006039E0940C40089060387405F08048D3D8
:100E8D0090603AE09433906039E0940C40089060A3
:100E9D00387404F08031D390603AE09466906039F4
:100EAD00E0940B40089060387403F0801AD3906082
:100EBD003AE09499906039E0940A90603840057456
:100ECD0002F080037401F0906004E064036004E0BC
:100EDD00B404069060387406F090602EE0700A90AD
:100EED006038E090602EF0801D90602EE0FF9060E5
:100EFD0038E0C39F400320020890602EE0906038D8
:100F0D00F0300202C202906038E0906018F07F016C
:100F1D007E00121B53906038E0C394034002D20749
:100F2D00906038E0C394044002D208906038E0C36A
:100F3D0094054002D209906038E0C394064002D275
:100F4D000A90602BE06017E4F0C20FC205300C0868
:100F5D00C20C90604DF0800690604D7401F030042D
:100F6D0016C204C20E300C09C20CE490604DF08024
:100F7D000690604D7401F090604DE07003121C36C8
:010F8D002241
:0C1C1F00906013EFF09060517401F0220F
:1019410090600FE025E02403F582E43460F583E044
:10195100FFA3E090602CCFF0A3EFF090602CE0FEAD
:10196100A3E0FF121C12121C057F03121C1F9060C2
:09197100141211230000000022F1
:1011A700906004E0600302134090604DE07003021A
:1011B700134090604EE064017064906003E0FF7E2E
:1011C700007C047DB0120F8EE4FCFD906014E0F803
:1011D700A3E0F9A3E0FAA3E0FBC31210E050030277
:1011E700133590601412112300000000906003E093
:1011F700B401057403F08007906003E02403F090C6
:10120700602CE0FEA3E0FFE4FCFD7B36FAF9F8D39F
:101217001210E0506590602DE024DB0213229060ED
:101227002CE0FEA3E0FFE4FCFD7BAFFAF9F8C31264
:1012370010E05049E47F28FEFDFC906014E0F8A31D
:10124700E0F9A3E0FAA3E0FBC31210E05003021396
:10125700359060141211230000000090602CE0FE0E
:10126700A3E0FFE4FCFD7B13FAF9F8D31210E0507A
:101277000990602DE024FE02132202132C90602CAB
:10128700E0FEA3E0FFE4FCFD7B9DFAF9F8C3121032
:10129700E05047E47FF0FEFDFC906014E0F8A3E027
:1012A700F9A3E0FAA3E0FBC31210E05003021335E1
:1012B7009060141211230000000090602CE0FEA340
:1012C700E0FFE4FCFD7B13FAF9F8D31210E05008B5
:1012D70090602DE024FE8043804BE47FA47E01FDD7
:1012E700FC906014E0F8A3E0F9A3E0FAA3E0FBC3E5
:1012F7001210E04039906014121123000000009092
:10130700602CE0FEA3E0FFE4FCFD7B13FAF9F8D3C1
:101317001210E0501090602DE024FEF090602CE059
:1013270034FFF0800990602CE4F0A37411F0906012
:0A1337002CE0FEA3E0FF121C1222BE
:10190000907116E0440CF0A374FFF0A3E04480F063
:10191000907162E05477F090715AE054FCF090714D
:101920001BE0548FF0907130E054FCF0E4F5AC9083
:101930007119E0549FF0907120E0547FF075BAD196
:011940002284
:101A1100907118E0547FF0A3E04460F090715AE0B7
:101A21004403F090711BE04470F0907120E0448019
:0F1A3100F0438E3075AC58907130E04403F022D2
:10164C00C21290604DE060030216FE90602CE070B8
:10165C0002A3E060030216FE78C274FFF208F2786F
:10166C00D2F208F278E2F208F278F2F208F253D2EF
:10167C00EF7890E254FCF2789CE254FCF29071000A
:10168C00E054FCF07869E254B7F290712FE054FE0C
:10169C00F020125B78E0E24408F278E2E2543FF288
:1016AC009071787414F078E0E254DFF208E254DFC1
:1016BC00F278E3E254F3F2A37416F053BAF7758E92
:1016CC0030758D13121900121A11538DFC20A304BE
:1016DC00D21280BD1219E2E4FF121BC3C3906053F7
:1016EC00E09490906052E0940340A6D21280A21233
:0216FC0018775D
:0116FE0022C9
:1017A9000216FFE493A3F8E493A34003F68001F241
:1017B90008DFF48029E493A3F85407240CC8C33341
:1017C900C4540F4420C8834004F456800146F6DF10
:1017D900E4800B01020408102040809014A1E47EEB
:1017E900019360BCA3FF543F30E509541FFEE49305
:1017F900A360010ECF54C025E060A840B8E493A3CC
:10180900FAE493A3F8E493A3C8C582C8CAC583CAF6
:10181900F0A3C8C582C8CAC583CADFE9DEE780BEAE
:01157C00006E
:100F8E00EF8DF0A4A8F0CF8CF0A428CE8DF0A42E77
:020F9E00FE2231
:100FA000E88FF0A4CC8BF0A42CFCE98EF0A42CFCF0
:100FB0008AF0EDA42CFCEA8EF0A4CDA8F08BF0A46E
:100FC0002DCC3825F0FDE98FF0A42CCD35F0FCEBCD
:100FD0008EF0A4FEA9F0EB8FF0A4CFC5F02ECD3992
:0F0FE000FEE43CFCEAA42DCE35F0FDE43CFC22FF
:100FEF0075F008758200EF2FFFEE33FECD33CDCCB9
:100FFF0033CCC58233C5829BED9AEC99E58298403C
:10100F000CF582EE9BFEED9AFDEC99FC0FD5F0D618
:10101F00E4CEFBE4CDFAE4CCF9A88222B800C1B942
:10102F000059BA002DEC8BF084CFCECDFCE5F0CB80
:10103F00F97818EF2FFFEE33FEED33FDEC33FCEBB9
:10104F0033FB10D703994004EB99FB0FD8E5E4F974
:10105F00FA227818EF2FFFEE33FEED33FDEC33FC61
:10106F00C933C910D7059BE99A4007EC9BFCE99A55
:10107F00F90FD8E0E4C9FAE4CCFB2275F010EF2F9A
:10108F00FFEE33FEED33FDCC33CCC833C810D7079A
:10109F009BEC9AE899400AED9BFDEC9AFCE899F8D5
:0E10AF000FD5F0DAE4CDFBE4CCFAE4C8F92268
:0D10BD00CFF4CFCEF4CECDF4CDCCF4CC22C8
:1010CA00EB9FF5F0EA9E42F0E99D42F0EC6480C89D
:0610DA0064809845F0223D
:1010E000EB9FF5F0EA9E42F0E99D42F0E89C45F066
:0110F00022DD
:1010F100E8600FECC313FCED13FDEE13FEEF13FFDD
:03110100D8F12200
:10110400E8600FEFC333FFEE33FEED33FDEC33FC49
:03111400D8F122ED
:0C111700ECF0A3EDF0A3EEF0A3EFF0224B
:10112300A8828583F0D083D08212113A12113A1229
:10113300113A12113AE473E493A3C583C5F0C5834E
:10114300C8C582C8F0A3C583C5F0C583C8C582C816
:011153002279
:10115400D083D082F8E4937012740193700DA3A32A
:1011640093F8740193F5828883E47374029368603E
:06117400EFA3A3A380DF3E
:10117A00EC8EF0A4CCC5F0CCCDF8EFA4CEC5F02D02
:10118A00FDE43CFCE8A42EC8C5F03DFDE43CFCEFC0
:0D119A00A4FFE5F028FEE43DFDE43CFC224E
:00000001FF
